:020000040800F2
:100000000000032099200008111F0008131F00089A
:10001000151F0008171F0008191F00080000000026
:100020000000000000000000000000001B1F00088E
:100030001D1F0008000000001F1F0008211F0008EE
:10004000E9200008E9200008E9200008E92000086C
:10005000E9200008E9200008E9200008E92000085C
:10006000E9200008E9200008E9200008E92000084C
:10007000E9200008E9200008E9200008E92000083C
:10008000E9200008E9200008E9200008E92000082C
:10009000E9200008E9200008E9200008E92000081C
:1000A000E9200008E9200008E9200008E92000080C
:1000B000E9200008E9200008E9200008E9200008FC
:1000C000E9200008E9200008E9200008E9200008EC
:1000D000E9200008E9200008E9200008E9200008DC
:1000E000E9200008E9200008E9200008E9200008CC
:1000F000E9200008E9200008E9200008E9200008BC
:10010000E9200008E9200008E9200008E9200008AB
:10011000E9200008E9200008E9200008E92000089B
:10012000E9200008E9200008291F0008E92000084C
:10013000E9200008E9200008E9200008E92000087B
:10014000E9200008E9200008E9200008E92000086B
:10015000E9200008E9200008391F0008491F0008AD
:10016000E9200008E9200008E9200008E92000084B
:10017000E9200008E9200008E9200008000000004C
:10018000E9200008E9200008E9200008E92000082B
:10019000E9200008E9200008E9200008E92000081B
:0C01A0000000000000000000E920000842
:1001AC0010B5054C237833B9044B13B10448AFF3A5
:1001BC0000800123237010BD3C04002000000000CF
:1001CC00B822000808B5034B1BB103490348AFF331
:1001DC00008008BD0000000040040020B822000888
:1001EC004FF0FF0C1CEAD0521EBF1CEAD15392EA0E
:1001FC000C0F93EA0C0F6FD01A4480EA010C4002EA
:10020C0018BF5FEA41211ED04FF0006343EA501043
:10021C0043EA5111A0FB01310CF00040B1F5000F85
:10022C003EBF490041EAD3715B0040EA010062F134
:10023C007F02FD2A1DD8B3F1004F40EBC25008BF1E
:10024C0020F00100704790F0000F0CF0004C08BF3C
:10025C0049024CEA502040EA51207F3AC2BFD2F109
:10026C00FF0340EAC250704740F400004FF0000317
:10027C00013A5DDC12F1190FDCBF00F00040704751
:10028C00C2F10002410021FA02F1C2F1200200FA8F
:10029C0002FC5FEA310040F1000053EA4C0308BF56
:1002AC0020EADC70704792F0000F00F0004C02BFA7
:1002BC00400010F4000F013AF9D040EA0C0093F022
:1002CC00000F01F0004C02BF490011F4000F013B7C
:1002DC00F9D041EA0C018FE70CEAD15392EA0C0FEA
:1002EC0018BF93EA0C0F0AD030F0004C18BF31F055
:1002FC00004CD8D180EA010000F00040704790F02B
:10030C00000F17BF90F0004F084691F0000F91F0CE
:10031C00004F14D092EA0C0F01D142020FD193EA94
:10032C000C0F03D14B0218BF084608D180EA01001C
:10033C0000F0004040F0FE4040F40000704740F0F8
:10034C00FE4040F44000704742000ED2B2F1FE4F26
:10035C000BD34FF09E03B3EB126209D44FEA002388
:10036C0043F0004323FA02F070474FF0000070474F
:10037C0012F1610F01D1420202D14FF0FF307047F0
:10038C004FF00000704700BF53B94AB9002908BFAD
:10039C0000281CBF4FF0FF314FF0FF3000F074B954
:1003AC00ADF1080C6DE904CE00F006F8DDF804E0C0
:1003BC00DDE9022304B070472DE9F047089E0D4695
:1003CC0004468846002B4DD18A42944668D9B2FA2D
:1003DC0082F252B101FA02F3C2F1200120FA01F1CA
:1003EC000CFA02FC41EA030894404FEA1C45210C2C
:1003FC00B8FBF5FE1FFA8CF705FB1E8341EA03439D
:10040C000EFB07F199420BD91CEB03030EF1FF30E5
:10041C0080F01E81994240F21B81AEF1020E6344C2
:10042C005B1AA4B2B3FBF5F005FB103344EA0344AA
:10043C0000FB07F7A7420AD91CEB040400F1FF33B9
:10044C0080F00881A74240F2058164440238E41B25
:10045C0040EA0E4000211EB1D4400023C6E90043FF
:10046C00BDE8F0878B4208D9002E00F0EE80002109
:10047C00C6E900050846BDE8F087B3FA83F1002908
:10048C004AD1AB4202D3824200F2F980841A65EB66
:10049C00030301209846002EE2D0C6E90048DFE7AE
:1004AC0002B9FFDEB2FA82F2002A40F09180A1EB91
:1004BC000C054FEA1C471FFA8CFE0121B5FBF7F324
:1004CC0007FB1350250C45EA00450EFB03F0A84230
:1004DC0008D91CEB050503F1FF3802D2A84200F243
:1004EC00CB8043462D1AA4B2B5FBF7F007FB105591
:1004FC0044EA05440EFB00FEA64508D91CEB040497
:10050C0000F1FF3502D2A64500F2BB802846A4EBD1
:10051C000E0440EA03409EE7C1F120078B4022FA0B
:10052C0007FC4CEA030C20FA07F405FA01F31C4310
:10053C00FD404FEA1C4900FA01F3B5FBF9F8200C19
:10054C001FFA8CFE09FB185540EA054508FB0EF016
:10055C00A84202FA01F20BD91CEB050508F1FF3A8F
:10056C0080F08880A84240F28580A8F1020865449A
:10057C002D1AA4B2B5FBF9F009FB105544EA054558
:10058C0000FB0EFEAE4508D91CEB050500F1FF344F
:10059C006CD2AE456AD90238654440EA0840A0FBEB
:1005AC000294A5EB0E05A542C846A64656D353D0D9
:1005BC005EB1B3EB080265EB0E0505FA07F722FAFC
:1005CC0001F3CD401F43C6E900750021BDE8F0875B
:1005DC00C2F1200320FA03F10CFA02FC25FA03F312
:1005EC0095400D434FEA1C471FFA8CFEB3FBF7F105
:1005FC0007FB11302B0C43EA004301FB0EF0984231
:10060C0004FA02F408D91CEB030301F1FF382FD2D2
:10061C0098422DD9023963441B1AADB2B3FBF7F0E3
:10062C0007FB103345EA034500FB0EF3AB4208D938
:10063C001CEB050500F1FF3816D2AB4214D9023879
:10064C006544ED1A40EA014138E73146304607E788
:10065C008646E5E61846FAE64B45A9D2B9EB020800
:10066C0064EB0C0E0138A3E74046EAE7204694E71A
:10067C004146D1E7D0467BE7023B654432E708466A
:10068C0009E76444023842E7704700BF10B50446DE
:10069C000E4B18784FF47A73B3FBF0F30C4A1068D6
:1006AC00B0FBF3F000F0B0F868B90F2C01D90120C1
:1006BC000AE0002221464FF0FF3000F05FF8054BB6
:1006CC001C60002000E0012010BD00BF00000020D5
:1006DC00080000200400002008B50B4B1A6842F4F7
:1006EC0000721A601A6842F480621A601A6842F446
:1006FC0080721A60032000F02FF80F20FFF7C6FF5E
:10070C0001F0E4FB002008BD003C0240034A1168E4
:10071C00034B1B780B441360704700BF5804002038
:10072C0000000020014B1868704700BF58040020DF
:10073C0038B50446FFF7F6FF0546B4F1FF3F02D08B
:10074C00044B1B781C44FFF7EDFF401BA042FAD36F
:10075C0038BD00BF00000020074AD36823F4E063D3
:10076C001B041B0C000200F4E060034343F0BF6366
:10077C0043F40033D360704700ED00E000B5194B33
:10078C00DB68C3F30223C3F1070CBCF1040F28BFD1
:10079C004FF0040C03F1040EBEF1060F18D9033B05
:1007AC004FF0FF3E0EFA0CFC21EA0C0199400EFAB8
:1007BC0003F322EA0303194300280BDB0901C9B236
:1007CC0000F1604000F5614080F800135DF804FB17
:1007DC000023E5E700F00F000901C9B2024B1954E0
:1007EC00F4E700BF00ED00E014ED00E0002807DBAB
:1007FC0000F01F02400901239340024A42F82030C6
:10080C00704700BF00E100E00138B0F1807F0BD2EF
:10081C004FF0E0235861054AF02182F823100020A4
:10082C00986107221A6170470120704700ED00E0C3
:10083C0010B40368D9B210390B4AA2FB0142120959
:10084C000A4CA25CC2655F2908D923F47F7323F09C
:10085C00030304338365806D10BC704723F47F73EE
:10086C0023F003038365F6E7ABAAAAAAD0220008FB
:10087C00836A826992B9012B0AD0022B02D00BB188
:10088C0000207047C36A13F0807F28D10020704786
:10089C00C36AB3F1C07F24D000207047B2F5005F6B
:1008AC0009D0022B25D9032B25D1C36A13F0807FE5
:1008BC0023D100207047032B03D8DFE803F0140486
:1008CC00140A00207047C36A13F0807F0DD10020FA
:1008DC007047C36AB3F1C07F09D000207047012074
:1008EC00704701207047012070470120704701209C
:1008FC0070470120704700207047012070470000AE
:10090C0070B50446FFF70EFF002C5BD005460223A2
:10091C0084F83530002384F834302268136823F0CF
:10092C000103136023681A6812F0010F0AD0FFF755
:10093C00F9FE431B052BF5D920236365032084F8AE
:10094C00350070BD1A68204810406168A2680A43DF
:10095C00E1680A4321690A4361690A43A1690A43B0
:10096C00E1690A43216A0A430243616A04291ED0E1
:10097C001A602668756925F00705636A1D43042B08
:10098C0007D1A36A1D43E36A1BB12046FFF770FF32
:10099C0090B975612046FFF74BFFE26D3F23934002
:1009AC00836000206065012384F83530C9E7E16A73
:1009BC00206B01430A43DBE740236365012084F885
:1009CC003500BEE70120BCE73F8010F070B504464F
:1009DC00866DFFF7A7FE94F83530DBB2022B06D0FC
:1009EC0080236365002384F83430012070BD0546F4
:1009FC002268136823F0160313602268536923F0EE
:100A0C0080035361236CE3B12268136823F008035D
:100A1C0013602268136823F00103136023681B68BA
:100A2C0013F0010F11D0FFF77DFE431B052BF5D9F9
:100A3C0020236365032084F83500002384F83430C8
:100A4C00D4E7A36C002BDFD1E3E7E26D3F239340A7
:100A5C00B360012384F83530002084F83400C5E7F6
:100A6C0090F83530DBB2022B03D080234365012094
:100A7C007047052380F835300268136823F00103B2
:100A8C001360002070470000F0B583B004460023CB
:100A9C000193724B1D68724BA3FB0535AD0A876D34
:100AAC003E68C26D08239340334210D003681A6825
:100ABC0012F0040F0BD01A6822F004021A60C26DF7
:100ACC0008239340BB60436D43F001034365E26D23
:100ADC0001239340334209D02268526912F0800FEF
:100AEC0004D0BB60636D43F002036365E26D0423C5
:100AFC009340334209D02268126812F0020F04D0DE
:100B0C00BB60636D43F004036365E26D1023934097
:100B1C00334224D02268126812F0080F1FD0BB6039
:100B2C0023681A6812F4802F0DD01B6813F4002F61
:100B3C0004D1236C9BB12046984710E0A36C73B191
:100B4C00204698470BE01A6812F4807F03D11A688C
:100B5C0022F008021A60236C0BB120469847E26D14
:100B6C0020239340334255D02268126812F0100FA4
:100B7C0050D0BB6094F83530DBB2052B0ED0236817
:100B8C001A6812F4802F33D01B6813F4002F2AD16B
:100B9C00636C002B3ED0204698473BE022681368DC
:100BAC0023F0160313602268536923F0800353610A
:100BBC00236CA3B12268136823F008031360E26D61
:100BCC003F239340BB60012384F83530002384F825
:100BDC003430236D002B3FD0204698473CE0A36C6B
:100BEC00002BE7D1EBE7E36BA3B12046984711E06C
:100BFC001A6812F4807F09D11A6822F010021A6068
:100C0C00012384F83530002384F83430E36B0BB1C6
:100C1C0020469847636DFBB1636D13F0010F17D03D
:100C2C00052384F835302268136823F00103136020
:100C3C00019B01330193AB4204D823681B6813F06A
:100C4C00010FF5D1012384F83530002384F83430BA
:100C5C00E36C0BB12046984703B0F0BD08000020B0
:100C6C00B5814E1B00230F2B00F2F18070B582B0C2
:100C7C0061E085685E000324B44025EA0405CC6875
:100C8C00B4402C438460456825EA02054C68C4F3E3
:100C9C0000129A402A4342605BE0DC08083450F8AA
:100CAC00246003F0070295000F22AA4026EA020EE8
:100CBC000A69AA4042EA0E0240F824205DE00922AB
:100CCC0000E0002202FA0EF22A430234604D45F88D
:100CDC002420604A14686FEA0C0224EA0C054E6862
:100CEC0016F4803F01D04CEA04055A4C2560646828
:100CFC0002EA04054E6816F4003F01D04CEA0405E4
:100D0C00544C6560A46802EA04054E6816F4801F12
:100D1C0001D04CEA04054F4CA560E46822404D68B4
:100D2C0015F4001F01D04CEA04024A4CE260013376
:100D3C000F2B00F28A8001229A400C6804EA020C04
:100D4C0032EA0404F3D14C6804F00304013C012C96
:100D5C008FD94A6802F00302032A09D0C4685D00E7
:100D6C000322AA4024EA02048A68AA402243C260F1
:100D7C004A6802F00302022A8FD004684FEA430E3D
:100D8C00032202FA0EF224EA02044A6802F0030279
:100D9C0002FA0EF2224302604A6812F4403FC6D0B7
:100DAC00002201922C4A546C44F480445464526CDA
:100DBC0002F480420192019A9C08A51C244A52F824
:100DCC00255003F003024FEA820E0F2202FA0EF2B4
:100DDC0025EA0205214A90423FF473AF02F5806286
:100DEC00904222D002F58062904220D002F58062BF
:100DFC0090421ED002F5806290421CD002F58062B7
:100E0C0090421AD002F58062904218D002F58062AE
:100E1C00904216D002F58062904214D002F58062A6
:100E2C0090423FF44CAF0A224CE701224AE70222DF
:100E3C0048E7032246E7042244E7052242E706225C
:100E4C0040E707223EE708223CE702B070BD70473E
:100E5C0000380140003C01400038024000000240D4
:100E6C000AB18161704709048161704710B582B085
:100E7C0000230193194B1A6C42F080521A641B6CBC
:100E8C0003F080530193019B154B01221A64FFF769
:100E9C0049FC0446134B5B6813F4803F08D1FFF701
:100EAC0041FC001BB0F57A7FF4D9032002B010BDD1
:100EBC000B4B01225A64FFF735FC0446094B5B6867
:100ECC0013F4003F07D1FFF72DFC001BB0F57A7F20
:100EDC00F4D90320EAE70020E8E700BF003802401D
:100EEC0000000E4200700040002800F0E08170B558
:100EFC0082B00446036813F0010F3BD09F4B9B68F4
:100F0C0003F00C03042B2CD09C4B9B6803F00C03BC
:100F1C00082B21D06368B3F5803F4FD0B3F5A02FD9
:100F2C0052D0964B1A6822F480321A601A6822F456
:100F3C0080221A606368002B50D0FFF7F3FB054644
:100F4C008E4B1B6813F4003F14D1FFF7EBFB401BD7
:100F5C006428F5D90320B1E1884B5B6813F4800F4A
:100F6C00D8D0864B1B6813F4003F03D06368002B6A
:100F7C0000F09F81236813F0020F54D07F4B9B68C5
:100F8C0013F00C0F3ED07D4B9B6803F00C03082B29
:100F9C0033D0E368002B68D0794B01221A60FFF73D
:100FAC00C1FB0546754B1B6813F0020F54D1FFF7BC
:100FBC00B9FB401B0228F5D903207FE16F4A136867
:100FCC0043F480331360B5E76C4B1A6842F480220B
:100FDC001A601A6842F480321A60ABE7FFF7A2FB82
:100FEC000546664B1B6813F4003FC3D0FFF79AFB12
:100FFC00401B6428F5D9032060E1604B5B6813F457
:10100C00800FC6D15D4B1B6813F0020F03D0E36851
:10101C00012B40F05081594A136823F0F8032169E1
:10102C0043EAC1031360236813F0080F42D06369CD
:10103C006BB3534B0122C3F8802EFFF773FB0546AD
:10104C004E4B5B6F13F0020F34D1FFF76BFB401B61
:10105C000228F5D9032031E1484A136823F0F8033C
:10106C00216943EAC1031360DDE7454B00221A6096
:10107C00FFF758FB0546414B1B6813F0020FD2D00B
:10108C00FFF750FB401B0228F5D9032016E13C4B1F
:10109C000022C3F8802EFFF745FB0546374B5B6FEC
:1010AC0013F0020F06D0FFF73DFB401B0228F5D9C9
:1010BC00032003E1236813F0040F77D02F4B1B6C34
:1010CC0013F0805F33D1002301932C4B1A6C42F048
:1010DC0080521A641B6C03F080530193019B012511
:1010EC00284B1B6813F4807F23D0A368012B34D0CA
:1010FC00052B38D0214B1A6F22F001021A671A6F98
:10110C0022F004021A67A368002B3DD0FFF70AFBFC
:10111C0006461A4B1B6F13F0020F46D1FFF702FB6A
:10112C00801B41F288339842F3D90320C6E0002596
:10113C00D6E7144A136843F480731360FFF7F2FA8E
:10114C000646104B1B6813F4807FCED1FFF7EAFAEA
:10115C00801B0228F5D90320B0E0084A136F43F036
:10116C0001031367CFE7054B1A6F42F004021A67AD
:10117C001A6F42F001021A67C5E700BF003802403F
:10118C000000474200700040FFF7CCFA0646524B75
:10119C001B6F13F0020F08D0FFF7C4FA801B41F24B
:1011AC0088339842F3D9032088E0EDB9A369002B6A
:1011BC0000F08380484A926802F00C02082A51D051
:1011CC00022B17D0454B00221A66FFF7ABFA0446E8
:1011DC00414B1B6813F0007F42D0FFF7A3FA001BB2
:1011EC000228F5D9032069E03B4A136C23F08053A5
:1011FC001364DBE7394B00221A66FFF793FA0546B6
:10120C00354B1B6813F0007F06D0FFF78BFA401BA1
:10121C000228F5D9032051E0E369226A1343626A7C
:10122C0043EA8213A26A5208013A43EA0243E26A91
:10123C0043EA0263284A5360284B01221A66FFF7DF
:10124C0071FA0446244B1B6813F0007F06D1FFF79C
:10125C0069FA001B0228F5D903202FE000202DE0AD
:10126C0000202BE0012B2BD01B4B5B6803F480017F
:10127C00E269914226D103F03F02216A8A4223D1CE
:10128C00616A47F6C0721A40B2EB811F1ED103F49B
:10129C004031A26A5208013AB1EB024F18D103F067
:1012AC007063E26AB3EB026F14D1002006E00120F8
:1012BC007047012002E0012000E0002002B070BD68
:1012CC000120FBE70120F9E70120F7E70120F5E712
:1012DC000120F3E70120F1E700380240000047420B
:1012EC0008B5254B9B6803F00C03042B3FD0082B4F
:1012FC003FD1214B5A6802F03F025B6813F4800F18
:10130C0012D01D4B5968C1F388111C480023A1FB56
:10131C000001FFF739F8184B5B68C3F30143013345
:10132C005B00B0FBF3F025E0134B5968C1F3881C4C
:10133C004FEA4C11B1EB0C006EEB0E0E4FEA8E1314
:10134C0043EA90638101091A63EB0E03DB0043EA65
:10135C005173C90011EB0C0C43F1000399020023EB
:10136C004FEA8C2041EA9C51FFF70EF8D3E7034873
:10137C0000E0034808BD00BF00380240001BB70066
:10138C000024F400002800F09B8070B50D46044644
:10139C004F4B1B6803F00F038B4208D2CBB24C4A65
:1013AC001370136803F00F038B4240F08B8023689B
:1013BC0013F0020F17D013F0040F04D0454A9368B2
:1013CC0043F4E0539360236813F0080F04D0414AB0
:1013DC00936843F4604393603E4A936823F0F003B0
:1013EC00A1680B439360236813F0010F32D063683C
:1013FC00012B21D09A1E012A25D9364A126812F0E7
:10140C00020F61D033498A6822F0030213438B60C8
:10141C00FFF788F906462F4B9B6803F00C036268B4
:10142C00B3EB820F16D0FFF77DF9801B41F28833A6
:10143C009842F0D9032042E0264A126812F4003F89
:10144C00E0D101203BE0234A126812F0007FD9D191
:10145C00012034E01E4B1B6803F00F03AB4207D98D
:10146C00EAB21B4B1A701B6803F00F03AB422DD171
:10147C00236813F0040F06D0164A936823F4E05344
:10148C00E1680B439360236813F0080F07D0114AEF
:10149C00936823F46043216943EAC1039360FFF727
:1014AC001FFF0C4B9B68C3F303130B4AD35CD84050
:1014BC000A4B18600A4B1868FFF7E8F8002070BD5B
:1014CC00012070470120FAE70120F8E70120F6E738
:1014DC00003C024000380240D822000808000020DE
:1014EC0004000020014B1868704700BF0800002062
:1014FC0008B5FFF7F7FF044B9B68C3F38223034A3D
:10150C00D35CD84008BD00BF00380240E822000878
:10151C0008B5FFF7E7FF044B9B68C3F34233034A5C
:10152C00D35CD84008BD00BF00380240E822000858
:10153C00026802F10C0353E8003F23F490730C3261
:10154C0042E800310029F3D1026802F1140353E898
:10155C00003F23F00103143242E800310029F3D19B
:10156C00036B012B05D0202380F83E30002303634E
:10157C007047026802F10C0353E8003F23F010039C
:10158C000C3242E800310029F3D1ECE790F83D3001
:10159C00DBB2212B01D0022070478368B3F5805F4A
:1015AC0017D0036A5A1C02621A7803685A60C38CFB
:1015BC009BB2013B9BB2C3844BB90268D36823F046
:1015CC008003D3600268D36843F04003D3600020EB
:1015DC0070470369002BE4D1036A1B880268C3F3CC
:1015EC0008035360036A02330362E0E738B504462C
:1015FC000268136923F44053C1680B431361836879
:10160C000269134342691343C2691A430168CB68E8
:10161C0023F4164323F00C031343CB600268536985
:10162C0023F4407381690B4353610368314A93423D
:10163C0006D002F58062934202D0FFF759FF01E019
:10164C00FFF766FFE369B3F5004F29D000210318BB
:10165C0049411B1841F10001C90041EA5371DB00FB
:10166C00181863684FEA83024FEA937341F1000143
:10167C00FEF78AFE204DA5FB00325109642303FBC3
:10168C0011031B013233A5FB03235B0903F0F002AA
:10169C0002EB011203F00F03216813448B6038BD79
:1016AC000023021843EB0301121841F10001C90099
:1016BC0041EA5271D200101841F10001626892188F
:1016CC005B41FEF761FE0C4DA5FB00325109642312
:1016DC0003FB1103DB003233A5FB03235B095A0028
:1016EC0002F4F87202EB011203F0070321681344B1
:1016FC008B60D4E7001001401F85EB5158B310B537
:10170C00044690F83D300BB3242384F83D30226816
:10171C00D36823F40053D3602046FFF767FF226899
:10172C00136923F4904313612268536923F02A034D
:10173C0053612268D36843F40053D36000202064C3
:10174C00202384F83D3084F83E3010BD80F83C30C6
:10175C0000F01AFCD8E701207047704708B5016803
:10176C00CA6822F04002CA60202280F83D20FFF7B0
:10177C00F4FF002008BD7047704708B5806B00234C
:10178C00C385C384FFF7F8FF08BD704790F83E305F
:10179C00DBB2222B67D18368B3F5805F4DD0826AB0
:1017AC00B3F5805F04D0002B54D10369002B51D1C9
:1017BC0003685B681370836A01338362C38D9BB2C9
:1017CC00013B9BB2C385002B4FD100B583B002689F
:1017DC00D36823F02003D3600268D36823F48073AA
:1017EC00D3600268536923F001035361202380F80E
:1017FC003E30036B012B33D100230363026802F1EB
:10180C000C0353E8003F23F010030C3242E8003184
:10181C000029F3D103681A6812F0100F06D00022C9
:10182C0001921A6801925B680193019B818DFFF70D
:10183C00ACFF002003B05DF804FB0269002AAED1B6
:10184C00826A03685B68C3F308031380836A0233FC
:10185C008362B3E703685B6803F07F031370AAE746
:10186C00FFF789FFE5E70220704700207047000072
:10187C0030B583B0044602681368D068516913F020
:10188C000F0505D113F0200F02D010F0200F19D145
:10189C002DB111F0010119D110F4907F16D1216BEB
:1018AC0001297DD013F0800F03D010F0800F40F091
:1018BC00158113F0400F03D010F0400F40F012814F
:1018CC0003B030BD2046FFF761FFF9E713F0010FBD
:1018DC0006D010F4807F03D0226C42F00102226407
:1018EC0013F0040F04D019B1226C42F002022264EE
:1018FC0013F0020F04D019B1226C42F004022264DE
:10190C0013F0080F07D010F0200F00D119B1226C82
:10191C0042F008022264226C002AD1D013F0200F6E
:10192C0002D010F0200F29D123685B6903F040032B
:10193C00226C12F0080F00D163B32046FFF7F8FDBC
:10194C0023685B6913F0400F20D0226802F1140366
:10195C0053E8003F23F04003143242E800310029E1
:10196C00F3D1A36B73B1614A1A65A06BFFF778F8DA
:10197C000028A5D0A06B036D9847A1E72046FFF780
:10198C0005FFD1E72046FFF7F7FE99E72046FFF762
:10199C00F3FE95E72046FFF7EFFE002323648FE765
:1019AC0013F0100F3FF47EAF10F0100F3FF47AAF2E
:1019BC00002301931368019353680193019B5369AE
:1019CC0013F0400F50D0A26B13685B689BB2002BD6
:1019DC003FF476AFA18D99427FF672AFE385D36960
:1019EC00B3F5807F37D0226802F10C0353E8003F37
:1019FC0023F480730C3242E800310029F3D12268C1
:101A0C0002F1140353E8003F23F00103143242E8BF
:101A1C0000310029F3D1226802F1140353E8003F8E
:101A2C0023F04003143242E800310029F3D1202383
:101A3C0084F83E3000232363226802F10C0353E840
:101A4C00003F23F010030C3242E800310029F3D19F
:101A5C00A06BFEF7BBFFA18DE38D9BB2C91A89B2B7
:101A6C002046FFF792FE2BE7A18DE38D9BB2C91A9E
:101A7C0089B2E38D9BB2002B3FF422AF00293FF4D7
:101A8C001FAF226802F10C0353E8003F23F490735C
:101A9C000C3242E800300028F3D1226802F1140322
:101AAC0053E8003F23F00103143242E800300028D1
:101ABC00F3D1202384F83E3000232363226802F103
:101ACC000C0353E8003F23F010030C3242E80030C3
:101ADC000028F3D12046FFF758FEF1E62046FFF729
:101AEC0055FDEDE62046FFF739FEE9E687170008BD
:101AFC00034B1A68536943F080035361704700BF6E
:101B0C00A005002010B4344B1A68136823F00103AD
:101B1C00136003E01A6822F001021A602E4B1B6856
:101B2C001A6812F0010FF5D12C4A9A6002F5A8320E
:101B3C005432934217D9583A4FF00064D460284A73
:101B4C00934226D9583A4FF08064D460D8605960DB
:101B5C00244A11684A6942F080024A611A6842F0CC
:101B6C0001021A602FE0204A934205D902F5527205
:101B7C004FF000649460E2E71C4A934204D9583A4F
:101B8C004FF00064D460DAE7194A4FF000649460B7
:101B9C00D5E7154A934205D902F552724FF080648D
:101BAC009460D3E7114A934204D9583A4FF08064B9
:101BBC00D460CBE70E4A4FF080649460C6E71A6895
:101BCC0042F001021A60044B1B681A6812F0010FF4
:101BDC00F5D010BC704700BF400500200414014034
:101BEC0058640240A0050020B860024058600240D2
:101BFC000060024030B505468E464FF0000C4FF0A9
:101C0C00FF3017E0104C84EA400006E05208013324
:101C1C001F2B0DD80028F5DB40000A42F6D080F0CF
:101C2C00986080F48E3080F4DB7080F00100EDE77A
:101C3C000CF1010CF44505D255F82C1000234FF093
:101C4C000042E5E730BD00BFB71DC10438B50446FE
:101C5C0000EB0013154D05EB430507212846FFF754
:101C6C00C9FF134B1860002308E0124AD05C04EB48
:101C7C0004120E4901EB4202D0540133172BF4DD50
:101C8C001E2300200BE00A4A12F800C004EB0412D9
:101C9C00064901EB420202F803C001330130212B4B
:101CAC00F1DD22212846FFF72DFF38BD600400200E
:101CBC005C040020C8040020034B19719870FE22AC
:101CCC001A70EE225A707047C8040020F8B5054609
:101CDC000E460A21FFF7F0FF0A4C0027A7814FF0B0
:101CEC0086413046FEF77CFA0749FEF779FAFEF793
:101CFC002BFBE08127614FF44063E3822846FFF71A
:101D0C00A5FFF8BDC80400209A99114110B582B006
:101D1C00002401940D4B1A6B42F480021A631B6B66
:101D2C0003F480030193019B224621463A20FEF7DF
:101D3C0025FD3A20FEF75AFD224621464620FEF7A5
:101D4C001DFD4620FEF752FD02B010BD00380240CA
:101D5C0030B589B000240394049405940694079438
:101D6C000094184B1A6B42F040021A631A6B02F083
:101D7C0040020092009A01941A6B42F001021A631D
:101D8C001A6B02F001020192019A02941A6B42F052
:101D9C0080021A631B6B03F080030293029B0A4DB3
:101DAC00224614212846FFF75BF8142303930123E2
:101DBC0004930594069403A92846FEF753FF09B033
:101DCC0030BD00BF00380240001C024072B6FEE776
:101DDC0000B595B03022002108A800F0A5F9002329
:101DEC00039304930593069307930193234A116C71
:101DFC0041F080511164126C02F080520192019AF0
:101E0C0002931F4B1A6842F440421A601B6803F499
:101E1C0040430293029B012308934FF480330993B0
:101E2C0002230E934FF480020F9206221092AE22E0
:101E3C00119212930423139308A8FFF755F8B0B925
:101E4C00FFF714F8A8B90F2303930223049300237C
:101E5C0005934FF4A05306934FF480530793052139
:101E6C0003A8FFF78FFA30B915B05DF804FBFFF744
:101E7C00ADFFFFF7ABFFFFF7A9FF00BF0038024033
:101E8C000070004008B5FEF727FCFFF7A1FFFFF735
:101E9C005FFFFFF73BFF00F05BF8FFF729FE0A4CF2
:101EAC00012210212046FEF7DBFF012204212046EF
:101EBC00FEF7D6FF4FF07C510020FFF707FF4FF4E1
:101ECC007A70FEF735FCF5E7001C024082B0002169
:101EDC0000910B4B5A6C42F480425A645A6C02F4D7
:101EEC0080420092009A01911A6C42F080521A645E
:101EFC001B6C03F080530193019B02B0704700BF31
:101F0C0000380240FEE7FEE7FEE7FEE7FEE770471B
:101F1C007047704708B5FEF7F9FB08BD08B50248D5
:101F2C00FEF7B2FD08BD00BFE004002008B5024872
:101F3C00FEF7AAFD08BD00BF4005002008B5024809
:101F4C00FFF796FC08BD00BFA005002070470000FD
:101F5C0008B50A480A4B03600A4B436000238360B0
:101F6C00C36003610C2242618361C361FFF7C6FB4E
:101F7C0000B908BDFFF72AFFFBE700BFA005002052
:101F8C0000140140003E490030B589B00023039392
:101F9C0004930593069307930268364B9A4201D03B
:101FAC0009B030BD04460025019503F592335A6CF7
:101FBC0042F020025A645A6C02F020020192019AFB
:101FCC0002951A6B42F040021A631B6B03F040033C
:101FDC000293029B4FF48443039302230493032341
:101FEC0006930823079303A92348FEF73BFE2348D7
:101FFC00234B03604FF02063436040238360C56034
:10200C004FF48063036145618561C5614FF44033D2
:10201C0003624562FEF774FC30BB184B63639C6330
:10202C001848194B03604FF0206343600023836012
:10203C00C3604FF480620261436183614FF480722C
:10204C00C2614FF4003202624362FEF759FC70B970
:10205C000C4BA3639C63002211464720FEF78EFBBA
:10206C004720FEF7C3FB9BE7FFF7B0FED5E7FFF772
:10207C00ADFEEDE7001401400018024040050020C1
:10208C00B8640240E004002040640240DFF834D021
:10209C000D480E490E4A002302E0D458C4500433B4
:1020AC00C4188C42F9D30B4A0B4C002301E013608B
:1020BC000432A242FBD3FFF749FF00F011F8FFF7FF
:1020CC00E1FE704700000320000000203C040020CB
:1020DC00082300083C040020E8050020FEE700006F
:1020EC0070B50D4E0D4D761BB61006D0002455F86C
:1020FC00043B01349847A642F9D1094E094D761B91
:10210C0000F0D4F8B61006D0002455F8043B013486
:10211C009847A642F9D170BDFC220008FC220008A9
:10212C0004230008FC220008830730B548D0541E55
:10213C00002A3FD0CAB2034601E0013C3AD303F86F
:10214C00012B9D07F9D1032C2DD9CDB245EA0525DC
:10215C000F2C45EA054536D9A4F1100222F00F0CDC
:10216C0003F1200EE6444FEA121C03F1100242E97F
:10217C00045542E9025510327245F8D10CF10102B6
:10218C0014F00C0F03EB021204F00F0C13D0ACF193
:10219C00040323F003030433134442F8045B934217
:1021AC00FBD10CF003042CB1CAB21C4403F8012B74
:1021BC009C42FBD130BD64461346002CF4D1F9E7A8
:1021CC0003461446BFE71A46A446E0E7024B13B198
:1021DC00024800F005B8704700000000F921000823
:1021EC00002301461A46184600F01AB838B5084BB9
:1021FC00084D5B1B9C1007D0043B1D44013C55F85B
:10220C0004399847002CF9D1BDE8384000F054B897
:10221C000823000804230008704700BF704700BF64
:10222C002DE9F047DFF87CA00646DAF80000984666
:10223C000F469146FFF7F0FF1B4B1B68D3F8484144
:10224C0024B365681F2D26DC5EB96B1C0235DAF8E9
:10225C000000636044F82570FFF7E0FF0020BDE844
:10226C00F08704EB85010123C1F88890D4F888210C
:10227C00AB401A43022EC4F88821C1F80881E4D17E
:10228C00D4F88C211343C4F88C31DEE703F5A67423
:10229C00C3F84841D5E7DAF80000FFF7BFFF4FF06D
:1022AC00FF30DCE738040020F0220008F8B500BF4E
:1022BC00F8BC08BC9E467047F8B500BFF8BC08BC1B
:0422CC009E46704773
:1022D00000061016000610160000000000000000A6
:1022E00001020304060708090000000001020304BC
:0422F00010000020BA
:0822F400D0E0FF7F01000000B3
:0822FC00D9210008D1010008FE
:04230400AD0100081F
:1023080001000000100000000024F400000000009C
:1023180000000000FC02002064030020CC03002021
:1023280000000000000000000000000000000000A5
:102338000000000000000000000000000000000095
:102348000000000000000000000000000000000085
:102358000000000000000000000000000000000075
:102368000000000000000000000000000000000065
:102378000000000000000000000000000000000055
:102388000000000000000000000000000000000045
:102398000000000000000000000000000000000035
:1023A8000000000000000000000000000000000025
:1023B8000000000000000000010000000000000014
:1023C8000E33CDAB34126DE6ECDE05000B000000D9
:1023D80000000000000000000000000000000000F5
:1023E80000000000000000000000000000000000E5
:1023F80000000000000000000000000000000000D5
:1024080000000000000000000000000000000000C4
:0C2738000000000000000000E40500208C
:040000050800209936
:00000001FF
